{
  "_format": "hh-sol-artifact-1",
  "contractName": "MyNFT",
  "sourceName": "contracts/NFT.sol",
  "abi": [
    {
      "inputs": [
        {
          "internalType": "address",
          "name": "initialOwner",
          "type": "address"
        }
      ],
      "stateMutability": "nonpayable",
      "type": "constructor"
    },
    {
      "inputs": [
        {
          "internalType": "address",
          "name": "sender",
          "type": "address"
        },
        {
          "internalType": "uint256",
          "name": "balance",
          "type": "uint256"
        },
        {
          "internalType": "uint256",
          "name": "needed",
          "type": "uint256"
        },
        {
          "internalType": "uint256",
          "name": "tokenId",
          "type": "uint256"
        }
      ],
      "name": "ERC1155InsufficientBalance",
      "type": "error"
    },
    {
      "inputs": [
        {
          "internalType": "address",
          "name": "approver",
          "type": "address"
        }
      ],
      "name": "ERC1155InvalidApprover",
      "type": "error"
    },
    {
      "inputs": [
        {
          "internalType": "uint256",
          "name": "idsLength",
          "type": "uint256"
        },
        {
          "internalType": "uint256",
          "name": "valuesLength",
          "type": "uint256"
        }
      ],
      "name": "ERC1155InvalidArrayLength",
      "type": "error"
    },
    {
      "inputs": [
        {
          "internalType": "address",
          "name": "operator",
          "type": "address"
        }
      ],
      "name": "ERC1155InvalidOperator",
      "type": "error"
    },
    {
      "inputs": [
        {
          "internalType": "address",
          "name": "receiver",
          "type": "address"
        }
      ],
      "name": "ERC1155InvalidReceiver",
      "type": "error"
    },
    {
      "inputs": [
        {
          "internalType": "address",
          "name": "sender",
          "type": "address"
        }
      ],
      "name": "ERC1155InvalidSender",
      "type": "error"
    },
    {
      "inputs": [
        {
          "internalType": "address",
          "name": "operator",
          "type": "address"
        },
        {
          "internalType": "address",
          "name": "owner",
          "type": "address"
        }
      ],
      "name": "ERC1155MissingApprovalForAll",
      "type": "error"
    },
    {
      "inputs": [
        {
          "internalType": "address",
          "name": "owner",
          "type": "address"
        }
      ],
      "name": "OwnableInvalidOwner",
      "type": "error"
    },
    {
      "inputs": [
        {
          "internalType": "address",
          "name": "account",
          "type": "address"
        }
      ],
      "name": "OwnableUnauthorizedAccount",
      "type": "error"
    },
    {
      "anonymous": false,
      "inputs": [
        {
          "indexed": true,
          "internalType": "address",
          "name": "account",
          "type": "address"
        },
        {
          "indexed": true,
          "internalType": "address",
          "name": "operator",
          "type": "address"
        },
        {
          "indexed": false,
          "internalType": "bool",
          "name": "approved",
          "type": "bool"
        }
      ],
      "name": "ApprovalForAll",
      "type": "event"
    },
    {
      "anonymous": false,
      "inputs": [
        {
          "indexed": true,
          "internalType": "address",
          "name": "previousOwner",
          "type": "address"
        },
        {
          "indexed": true,
          "internalType": "address",
          "name": "newOwner",
          "type": "address"
        }
      ],
      "name": "OwnershipTransferred",
      "type": "event"
    },
    {
      "anonymous": false,
      "inputs": [
        {
          "indexed": true,
          "internalType": "address",
          "name": "operator",
          "type": "address"
        },
        {
          "indexed": true,
          "internalType": "address",
          "name": "from",
          "type": "address"
        },
        {
          "indexed": true,
          "internalType": "address",
          "name": "to",
          "type": "address"
        },
        {
          "indexed": false,
          "internalType": "uint256[]",
          "name": "ids",
          "type": "uint256[]"
        },
        {
          "indexed": false,
          "internalType": "uint256[]",
          "name": "values",
          "type": "uint256[]"
        }
      ],
      "name": "TransferBatch",
      "type": "event"
    },
    {
      "anonymous": false,
      "inputs": [
        {
          "indexed": true,
          "internalType": "address",
          "name": "operator",
          "type": "address"
        },
        {
          "indexed": true,
          "internalType": "address",
          "name": "from",
          "type": "address"
        },
        {
          "indexed": true,
          "internalType": "address",
          "name": "to",
          "type": "address"
        },
        {
          "indexed": false,
          "internalType": "uint256",
          "name": "id",
          "type": "uint256"
        },
        {
          "indexed": false,
          "internalType": "uint256",
          "name": "value",
          "type": "uint256"
        }
      ],
      "name": "TransferSingle",
      "type": "event"
    },
    {
      "anonymous": false,
      "inputs": [
        {
          "indexed": false,
          "internalType": "string",
          "name": "value",
          "type": "string"
        },
        {
          "indexed": true,
          "internalType": "uint256",
          "name": "id",
          "type": "uint256"
        }
      ],
      "name": "URI",
      "type": "event"
    },
    {
      "inputs": [
        {
          "internalType": "address",
          "name": "account",
          "type": "address"
        },
        {
          "internalType": "uint256",
          "name": "id",
          "type": "uint256"
        }
      ],
      "name": "balanceOf",
      "outputs": [
        {
          "internalType": "uint256",
          "name": "",
          "type": "uint256"
        }
      ],
      "stateMutability": "view",
      "type": "function"
    },
    {
      "inputs": [
        {
          "internalType": "address[]",
          "name": "accounts",
          "type": "address[]"
        },
        {
          "internalType": "uint256[]",
          "name": "ids",
          "type": "uint256[]"
        }
      ],
      "name": "balanceOfBatch",
      "outputs": [
        {
          "internalType": "uint256[]",
          "name": "",
          "type": "uint256[]"
        }
      ],
      "stateMutability": "view",
      "type": "function"
    },
    {
      "inputs": [
        {
          "internalType": "uint256",
          "name": "id",
          "type": "uint256"
        }
      ],
      "name": "exists",
      "outputs": [
        {
          "internalType": "bool",
          "name": "",
          "type": "bool"
        }
      ],
      "stateMutability": "view",
      "type": "function"
    },
    {
      "inputs": [
        {
          "internalType": "address",
          "name": "account",
          "type": "address"
        },
        {
          "internalType": "address",
          "name": "operator",
          "type": "address"
        }
      ],
      "name": "isApprovedForAll",
      "outputs": [
        {
          "internalType": "bool",
          "name": "",
          "type": "bool"
        }
      ],
      "stateMutability": "view",
      "type": "function"
    },
    {
      "inputs": [
        {
          "internalType": "address",
          "name": "account",
          "type": "address"
        },
        {
          "internalType": "uint256",
          "name": "id",
          "type": "uint256"
        },
        {
          "internalType": "uint256",
          "name": "amount",
          "type": "uint256"
        },
        {
          "internalType": "bytes",
          "name": "data",
          "type": "bytes"
        }
      ],
      "name": "mint",
      "outputs": [],
      "stateMutability": "nonpayable",
      "type": "function"
    },
    {
      "inputs": [
        {
          "internalType": "address",
          "name": "to",
          "type": "address"
        },
        {
          "internalType": "uint256[]",
          "name": "ids",
          "type": "uint256[]"
        },
        {
          "internalType": "uint256[]",
          "name": "amounts",
          "type": "uint256[]"
        },
        {
          "internalType": "bytes",
          "name": "data",
          "type": "bytes"
        }
      ],
      "name": "mintBatch",
      "outputs": [],
      "stateMutability": "nonpayable",
      "type": "function"
    },
    {
      "inputs": [],
      "name": "owner",
      "outputs": [
        {
          "internalType": "address",
          "name": "",
          "type": "address"
        }
      ],
      "stateMutability": "view",
      "type": "function"
    },
    {
      "inputs": [],
      "name": "renounceOwnership",
      "outputs": [],
      "stateMutability": "nonpayable",
      "type": "function"
    },
    {
      "inputs": [
        {
          "internalType": "address",
          "name": "from",
          "type": "address"
        },
        {
          "internalType": "address",
          "name": "to",
          "type": "address"
        },
        {
          "internalType": "uint256[]",
          "name": "ids",
          "type": "uint256[]"
        },
        {
          "internalType": "uint256[]",
          "name": "values",
          "type": "uint256[]"
        },
        {
          "internalType": "bytes",
          "name": "data",
          "type": "bytes"
        }
      ],
      "name": "safeBatchTransferFrom",
      "outputs": [],
      "stateMutability": "nonpayable",
      "type": "function"
    },
    {
      "inputs": [
        {
          "internalType": "address",
          "name": "from",
          "type": "address"
        },
        {
          "internalType": "address",
          "name": "to",
          "type": "address"
        },
        {
          "internalType": "uint256",
          "name": "id",
          "type": "uint256"
        },
        {
          "internalType": "uint256",
          "name": "value",
          "type": "uint256"
        },
        {
          "internalType": "bytes",
          "name": "data",
          "type": "bytes"
        }
      ],
      "name": "safeTransferFrom",
      "outputs": [],
      "stateMutability": "nonpayable",
      "type": "function"
    },
    {
      "inputs": [
        {
          "internalType": "address",
          "name": "operator",
          "type": "address"
        },
        {
          "internalType": "bool",
          "name": "approved",
          "type": "bool"
        }
      ],
      "name": "setApprovalForAll",
      "outputs": [],
      "stateMutability": "nonpayable",
      "type": "function"
    },
    {
      "inputs": [
        {
          "internalType": "string",
          "name": "newuri",
          "type": "string"
        }
      ],
      "name": "setURI",
      "outputs": [],
      "stateMutability": "nonpayable",
      "type": "function"
    },
    {
      "inputs": [
        {
          "internalType": "bytes4",
          "name": "interfaceId",
          "type": "bytes4"
        }
      ],
      "name": "supportsInterface",
      "outputs": [
        {
          "internalType": "bool",
          "name": "",
          "type": "bool"
        }
      ],
      "stateMutability": "view",
      "type": "function"
    },
    {
      "inputs": [],
      "name": "totalSupply",
      "outputs": [
        {
          "internalType": "uint256",
          "name": "",
          "type": "uint256"
        }
      ],
      "stateMutability": "view",
      "type": "function"
    },
    {
      "inputs": [
        {
          "internalType": "uint256",
          "name": "id",
          "type": "uint256"
        }
      ],
      "name": "totalSupply",
      "outputs": [
        {
          "internalType": "uint256",
          "name": "",
          "type": "uint256"
        }
      ],
      "stateMutability": "view",
      "type": "function"
    },
    {
      "inputs": [
        {
          "internalType": "address",
          "name": "newOwner",
          "type": "address"
        }
      ],
      "name": "transferOwnership",
      "outputs": [],
      "stateMutability": "nonpayable",
      "type": "function"
    },
    {
      "inputs": [
        {
          "internalType": "uint256",
          "name": "",
          "type": "uint256"
        }
      ],
      "name": "uri",
      "outputs": [
        {
          "internalType": "string",
          "name": "",
          "type": "string"
        }
      ],
      "stateMutability": "view",
      "type": "function"
    }
  ],
  "bytecode": "0x60806040523480156200001157600080fd5b506040516200316438038062003164833981810160405281019062000037919062000253565b806040518060400160405280600581526020017f41797573680000000000000000000000000000000000000000000000000000008152506200007f816200010e60201b60201c565b50600073ffffffffffffffffffffffffffffffffffffffff168173ffffffffffffffffffffffffffffffffffffffff1603620000f55760006040517f1e4fbdf7000000000000000000000000000000000000000000000000000000008152600401620000ec919062000296565b60405180910390fd5b62000106816200012360201b60201c565b505062000614565b80600290816200011f91906200052d565b5050565b6000600360009054906101000a900473ffffffffffffffffffffffffffffffffffffffff16905081600360006101000a81548173ffffffffffffffffffffffffffffffffffffffff021916908373ffffffffffffffffffffffffffffffffffffffff1602179055508173ffffffffffffffffffffffffffffffffffffffff168173ffffffffffffffffffffffffffffffffffffffff167f8be0079c531659141344cd1fd0a4f28419497f9722a3daafe3b4186f6b6457e060405160405180910390a35050565b600080fd5b600073ffffffffffffffffffffffffffffffffffffffff82169050919050565b60006200021b82620001ee565b9050919050565b6200022d816200020e565b81146200023957600080fd5b50565b6000815190506200024d8162000222565b92915050565b6000602082840312156200026c576200026b620001e9565b5b60006200027c848285016200023c565b91505092915050565b62000290816200020e565b82525050565b6000602082019050620002ad600083018462000285565b92915050565b600081519050919050565b7f4e487b7100000000000000000000000000000000000000000000000000000000600052604160045260246000fd5b7f4e487b7100000000000000000000000000000000000000000000000000000000600052602260045260246000fd5b600060028204905060018216806200033557607f821691505b6020821081036200034b576200034a620002ed565b5b50919050565b60008190508160005260206000209050919050565b60006020601f8301049050919050565b600082821b905092915050565b600060088302620003b57fffffffffffffffffffffffffffffffffffffffffffffffffffffffffffffffff8262000376565b620003c1868362000376565b95508019841693508086168417925050509392505050565b6000819050919050565b6000819050919050565b60006200040e620004086200040284620003d9565b620003e3565b620003d9565b9050919050565b6000819050919050565b6200042a83620003ed565b62000442620004398262000415565b84845462000383565b825550505050565b600090565b620004596200044a565b620004668184846200041f565b505050565b5b818110156200048e57620004826000826200044f565b6001810190506200046c565b5050565b601f821115620004dd57620004a78162000351565b620004b28462000366565b81016020851015620004c2578190505b620004da620004d18562000366565b8301826200046b565b50505b505050565b600082821c905092915050565b60006200050260001984600802620004e2565b1980831691505092915050565b60006200051d8383620004ef565b9150826002028217905092915050565b6200053882620002b3565b67ffffffffffffffff811115620005545762000553620002be565b5b6200056082546200031c565b6200056d82828562000492565b600060209050601f831160018114620005a5576000841562000590578287015190505b6200059c85826200050f565b8655506200060c565b601f198416620005b58662000351565b60005b82811015620005df57848901518255600182019150602085019450602081019050620005b8565b86831015620005ff5784890151620005fb601f891682620004ef565b8355505b6001600288020188555050505b505050505050565b612b4080620006246000396000f3fe608060405234801561001057600080fd5b506004361061010a5760003560e01c80634f558e79116100a2578063a22cb46511610071578063a22cb465146102b5578063bd85b039146102d1578063e985e9c514610301578063f242432a14610331578063f2fde38b1461034d5761010a565b80634f558e7914610241578063715018a614610271578063731133e91461027b5780638da5cb5b146102975761010a565b806318160ddd116100de57806318160ddd146101bb5780631f7fdffa146101d95780632eb2c2d6146101f55780634e1273f4146102115761010a565b8062fdd58e1461010f57806301ffc9a71461013f57806302fe53051461016f5780630e89341c1461018b575b600080fd5b61012960048036038101906101249190611a7e565b610369565b6040516101369190611acd565b60405180910390f35b61015960048036038101906101549190611b40565b6103c3565b6040516101669190611b88565b60405180910390f35b61018960048036038101906101849190611ce9565b6104a5565b005b6101a560048036038101906101a09190611d32565b6104b9565b6040516101b29190611dde565b60405180910390f35b6101c361054d565b6040516101d09190611acd565b60405180910390f35b6101f360048036038101906101ee9190611f69565b610557565b005b61020f600480360381019061020a9190612024565b610571565b005b61022b600480360381019061022691906121b6565b610619565b60405161023891906122ec565b60405180910390f35b61025b60048036038101906102569190611d32565b610728565b6040516102689190611b88565b60405180910390f35b61027961073c565b005b6102956004803603810190610290919061230e565b610750565b005b61029f61076a565b6040516102ac91906123a0565b60405180910390f35b6102cf60048036038101906102ca91906123e7565b610794565b005b6102eb60048036038101906102e69190611d32565b6107aa565b6040516102f89190611acd565b60405180910390f35b61031b60048036038101906103169190612427565b6107c7565b6040516103289190611b88565b60405180910390f35b61034b60048036038101906103469190612467565b61085b565b005b610367600480360381019061036291906124fe565b610903565b005b600080600083815260200190815260200160002060008473ffffffffffffffffffffffffffffffffffffffff1673ffffffffffffffffffffffffffffffffffffffff16815260200190815260200160002054905092915050565b60007fd9b67a26000000000000000000000000000000000000000000000000000000007bffffffffffffffffffffffffffffffffffffffffffffffffffffffff1916827bffffffffffffffffffffffffffffffffffffffffffffffffffffffff1916148061048e57507f0e89341c000000000000000000000000000000000000000000000000000000007bffffffffffffffffffffffffffffffffffffffffffffffffffffffff1916827bffffffffffffffffffffffffffffffffffffffffffffffffffffffff1916145b8061049e575061049d82610989565b5b9050919050565b6104ad6109f3565b6104b681610a7a565b50565b6060600280546104c89061255a565b80601f01602080910402602001604051908101604052809291908181526020018280546104f49061255a565b80156105415780601f1061051657610100808354040283529160200191610541565b820191906000526020600020905b81548152906001019060200180831161052457829003601f168201915b50505050509050919050565b6000600554905090565b61055f6109f3565b61056b84848484610a8d565b50505050565b600061057b610b13565b90508073ffffffffffffffffffffffffffffffffffffffff168673ffffffffffffffffffffffffffffffffffffffff16141580156105c057506105be86826107c7565b155b156106045780866040517fe237d9220000000000000000000000000000000000000000000000000000000081526004016105fb92919061258b565b60405180910390fd5b6106118686868686610b1b565b505050505050565b6060815183511461066557815183516040517f5b05999100000000000000000000000000000000000000000000000000000000815260040161065c9291906125b4565b60405180910390fd5b6000835167ffffffffffffffff81111561068257610681611bbe565b5b6040519080825280602002602001820160405280156106b05781602001602082028036833780820191505090505b50905060005b845181101561071d576106ed6106d58287610c1390919063ffffffff16565b6106e88387610c2790919063ffffffff16565b610369565b828281518110610700576106ff6125dd565b5b602002602001018181525050806107169061263b565b90506106b6565b508091505092915050565b600080610734836107aa565b119050919050565b6107446109f3565b61074e6000610c3b565b565b6107586109f3565b61076484848484610d01565b50505050565b6000600360009054906101000a900473ffffffffffffffffffffffffffffffffffffffff16905090565b6107a661079f610b13565b8383610d9a565b5050565b600060046000838152602001908152602001600020549050919050565b6000600160008473ffffffffffffffffffffffffffffffffffffffff1673ffffffffffffffffffffffffffffffffffffffff16815260200190815260200160002060008373ffffffffffffffffffffffffffffffffffffffff1673ffffffffffffffffffffffffffffffffffffffff16815260200190815260200160002060009054906101000a900460ff16905092915050565b6000610865610b13565b90508073ffffffffffffffffffffffffffffffffffffffff168673ffffffffffffffffffffffffffffffffffffffff16141580156108aa57506108a886826107c7565b155b156108ee5780866040517fe237d9220000000000000000000000000000000000000000000000000000000081526004016108e592919061258b565b60405180910390fd5b6108fb8686868686610f0a565b505050505050565b61090b6109f3565b600073ffffffffffffffffffffffffffffffffffffffff168173ffffffffffffffffffffffffffffffffffffffff160361097d5760006040517f1e4fbdf700000000000000000000000000000000000000000000000000000000815260040161097491906123a0565b60405180910390fd5b61098681610c3b565b50565b60007f01ffc9a7000000000000000000000000000000000000000000000000000000007bffffffffffffffffffffffffffffffffffffffffffffffffffffffff1916827bffffffffffffffffffffffffffffffffffffffffffffffffffffffff1916149050919050565b6109fb610b13565b73ffffffffffffffffffffffffffffffffffffffff16610a1961076a565b73ffffffffffffffffffffffffffffffffffffffff1614610a7857610a3c610b13565b6040517f118cdaa7000000000000000000000000000000000000000000000000000000008152600401610a6f91906123a0565b60405180910390fd5b565b8060029081610a89919061282f565b5050565b600073ffffffffffffffffffffffffffffffffffffffff168473ffffffffffffffffffffffffffffffffffffffff1603610aff5760006040517f57f447ce000000000000000000000000000000000000000000000000000000008152600401610af691906123a0565b60405180910390fd5b610b0d600085858585611015565b50505050565b600033905090565b600073ffffffffffffffffffffffffffffffffffffffff168473ffffffffffffffffffffffffffffffffffffffff1603610b8d5760006040517f57f447ce000000000000000000000000000000000000000000000000000000008152600401610b8491906123a0565b60405180910390fd5b600073ffffffffffffffffffffffffffffffffffffffff168573ffffffffffffffffffffffffffffffffffffffff1603610bff5760006040517f01a83514000000000000000000000000000000000000000000000000000000008152600401610bf691906123a0565b60405180910390fd5b610c0c8585858585611015565b5050505050565b600060208202602084010151905092915050565b600060208202602084010151905092915050565b6000600360009054906101000a900473ffffffffffffffffffffffffffffffffffffffff16905081600360006101000a81548173ffffffffffffffffffffffffffffffffffffffff021916908373ffffffffffffffffffffffffffffffffffffffff1602179055508173ffffffffffffffffffffffffffffffffffffffff168173ffffffffffffffffffffffffffffffffffffffff167f8be0079c531659141344cd1fd0a4f28419497f9722a3daafe3b4186f6b6457e060405160405180910390a35050565b600073ffffffffffffffffffffffffffffffffffffffff168473ffffffffffffffffffffffffffffffffffffffff1603610d735760006040517f57f447ce000000000000000000000000000000000000000000000000000000008152600401610d6a91906123a0565b60405180910390fd5b600080610d8085856110c7565b91509150610d92600087848487611015565b505050505050565b600073ffffffffffffffffffffffffffffffffffffffff168273ffffffffffffffffffffffffffffffffffffffff1603610e0c5760006040517fced3e100000000000000000000000000000000000000000000000000000000008152600401610e0391906123a0565b60405180910390fd5b80600160008573ffffffffffffffffffffffffffffffffffffffff1673ffffffffffffffffffffffffffffffffffffffff16815260200190815260200160002060008473ffffffffffffffffffffffffffffffffffffffff1673ffffffffffffffffffffffffffffffffffffffff16815260200190815260200160002060006101000a81548160ff0219169083151502179055508173ffffffffffffffffffffffffffffffffffffffff168373ffffffffffffffffffffffffffffffffffffffff167f17307eab39ab6107e8899845ad3d59bd9653f200f220920489ca2b5937696c3183604051610efd9190611b88565b60405180910390a3505050565b600073ffffffffffffffffffffffffffffffffffffffff168473ffffffffffffffffffffffffffffffffffffffff1603610f7c5760006040517f57f447ce000000000000000000000000000000000000000000000000000000008152600401610f7391906123a0565b60405180910390fd5b600073ffffffffffffffffffffffffffffffffffffffff168573ffffffffffffffffffffffffffffffffffffffff1603610fee5760006040517f01a83514000000000000000000000000000000000000000000000000000000008152600401610fe591906123a0565b60405180910390fd5b600080610ffb85856110c7565b9150915061100c8787848487611015565b50505050505050565b611021858585856110f7565b600073ffffffffffffffffffffffffffffffffffffffff168473ffffffffffffffffffffffffffffffffffffffff16146110c057600061105f610b13565b905060018451036110af576000611080600086610c2790919063ffffffff16565b90506000611098600086610c2790919063ffffffff16565b90506110a8838989858589611109565b50506110be565b6110bd8187878787876112bd565b5b505b5050505050565b60608060405191506001825283602083015260408201905060018152826020820152604081016040529250929050565b61110384848484611471565b50505050565b60008473ffffffffffffffffffffffffffffffffffffffff163b11156112b5578373ffffffffffffffffffffffffffffffffffffffff1663f23a6e6187878686866040518663ffffffff1660e01b815260040161116a959493929190612956565b6020604051808303816000875af19250505080156111a657506040513d601f19601f820116820180604052508101906111a391906129c5565b60015b61122a573d80600081146111d6576040519150601f19603f3d011682016040523d82523d6000602084013e6111db565b606091505b50600081510361122257846040517f57f447ce00000000000000000000000000000000000000000000000000000000815260040161121991906123a0565b60405180910390fd5b805181602001fd5b63f23a6e6160e01b7bffffffffffffffffffffffffffffffffffffffffffffffffffffffff1916817bffffffffffffffffffffffffffffffffffffffffffffffffffffffff1916146112b357846040517f57f447ce0000000000000000000000000000000000000000000000000000000081526004016112aa91906123a0565b60405180910390fd5b505b505050505050565b60008473ffffffffffffffffffffffffffffffffffffffff163b1115611469578373ffffffffffffffffffffffffffffffffffffffff1663bc197c8187878686866040518663ffffffff1660e01b815260040161131e9594939291906129f2565b6020604051808303816000875af192505050801561135a57506040513d601f19601f8201168201806040525081019061135791906129c5565b60015b6113de573d806000811461138a576040519150601f19603f3d011682016040523d82523d6000602084013e61138f565b606091505b5060008151036113d657846040517f57f447ce0000000000000000000000000000000000000000000000000000000081526004016113cd91906123a0565b60405180910390fd5b805181602001fd5b63bc197c8160e01b7bffffffffffffffffffffffffffffffffffffffffffffffffffffffff1916817bffffffffffffffffffffffffffffffffffffffffffffffffffffffff19161461146757846040517f57f447ce00000000000000000000000000000000000000000000000000000000815260040161145e91906123a0565b60405180910390fd5b505b505050505050565b61147d84848484611628565b600073ffffffffffffffffffffffffffffffffffffffff168473ffffffffffffffffffffffffffffffffffffffff160361155d576000805b83518110156115415760008382815181106114d3576114d26125dd565b5b6020026020010151905080600460008785815181106114f5576114f46125dd565b5b60200260200101518152602001908152602001600020600082825461151a9190612a5a565b92505081905550808361152d9190612a5a565b9250508061153a9061263b565b90506114b5565b5080600560008282546115549190612a5a565b92505081905550505b600073ffffffffffffffffffffffffffffffffffffffff168373ffffffffffffffffffffffffffffffffffffffff1603611622576000805b835181101561160f5760008382815181106115b3576115b26125dd565b5b6020026020010151905080600460008785815181106115d5576115d46125dd565b5b6020026020010151815260200190815260200160002060008282540392505081905550808301925050806116089061263b565b9050611595565b5080600560008282540392505081905550505b50505050565b805182511461167257815181516040517f5b0599910000000000000000000000000000000000000000000000000000000081526004016116699291906125b4565b60405180910390fd5b600061167c610b13565b905060005b835181101561189157600061169f8286610c2790919063ffffffff16565b905060006116b68386610c2790919063ffffffff16565b9050600073ffffffffffffffffffffffffffffffffffffffff168873ffffffffffffffffffffffffffffffffffffffff16146117e357600080600084815260200190815260200160002060008a73ffffffffffffffffffffffffffffffffffffffff1673ffffffffffffffffffffffffffffffffffffffff1681526020019081526020016000205490508181101561178b57888183856040517f03dee4c50000000000000000000000000000000000000000000000000000000081526004016117829493929190612a8e565b60405180910390fd5b81810360008085815260200190815260200160002060008b73ffffffffffffffffffffffffffffffffffffffff1673ffffffffffffffffffffffffffffffffffffffff16815260200190815260200160002081905550505b600073ffffffffffffffffffffffffffffffffffffffff168773ffffffffffffffffffffffffffffffffffffffff161461187e578060008084815260200190815260200160002060008973ffffffffffffffffffffffffffffffffffffffff1673ffffffffffffffffffffffffffffffffffffffff16815260200190815260200160002060008282546118769190612a5a565b925050819055505b50508061188a9061263b565b9050611681565b5060018351036119505760006118b1600085610c2790919063ffffffff16565b905060006118c9600085610c2790919063ffffffff16565b90508573ffffffffffffffffffffffffffffffffffffffff168773ffffffffffffffffffffffffffffffffffffffff168473ffffffffffffffffffffffffffffffffffffffff167fc3d58168c5ae7397731d063d5bbf3d657854427343f4c083240f7aacaa2d0f6285856040516119419291906125b4565b60405180910390a450506119cf565b8373ffffffffffffffffffffffffffffffffffffffff168573ffffffffffffffffffffffffffffffffffffffff168273ffffffffffffffffffffffffffffffffffffffff167f4a39dc06d4c0dbc64b70af90fd698a233a518aa5d07e595d983b8c0526c8f7fb86866040516119c6929190612ad3565b60405180910390a45b5050505050565b6000604051905090565b600080fd5b600080fd5b600073ffffffffffffffffffffffffffffffffffffffff82169050919050565b6000611a15826119ea565b9050919050565b611a2581611a0a565b8114611a3057600080fd5b50565b600081359050611a4281611a1c565b92915050565b6000819050919050565b611a5b81611a48565b8114611a6657600080fd5b50565b600081359050611a7881611a52565b92915050565b60008060408385031215611a9557611a946119e0565b5b6000611aa385828601611a33565b9250506020611ab485828601611a69565b9150509250929050565b611ac781611a48565b82525050565b6000602082019050611ae26000830184611abe565b92915050565b60007fffffffff0000000000000000000000000000000000000000000000000000000082169050919050565b611b1d81611ae8565b8114611b2857600080fd5b50565b600081359050611b3a81611b14565b92915050565b600060208284031215611b5657611b556119e0565b5b6000611b6484828501611b2b565b91505092915050565b60008115159050919050565b611b8281611b6d565b82525050565b6000602082019050611b9d6000830184611b79565b92915050565b600080fd5b600080fd5b6000601f19601f8301169050919050565b7f4e487b7100000000000000000000000000000000000000000000000000000000600052604160045260246000fd5b611bf682611bad565b810181811067ffffffffffffffff82111715611c1557611c14611bbe565b5b80604052505050565b6000611c286119d6565b9050611c348282611bed565b919050565b600067ffffffffffffffff821115611c5457611c53611bbe565b5b611c5d82611bad565b9050602081019050919050565b82818337600083830152505050565b6000611c8c611c8784611c39565b611c1e565b905082815260208101848484011115611ca857611ca7611ba8565b5b611cb3848285611c6a565b509392505050565b600082601f830112611cd057611ccf611ba3565b5b8135611ce0848260208601611c79565b91505092915050565b600060208284031215611cff57611cfe6119e0565b5b600082013567ffffffffffffffff811115611d1d57611d1c6119e5565b5b611d2984828501611cbb565b91505092915050565b600060208284031215611d4857611d476119e0565b5b6000611d5684828501611a69565b91505092915050565b600081519050919050565b600082825260208201905092915050565b60005b83811015611d99578082015181840152602081019050611d7e565b60008484015250505050565b6000611db082611d5f565b611dba8185611d6a565b9350611dca818560208601611d7b565b611dd381611bad565b840191505092915050565b60006020820190508181036000830152611df88184611da5565b905092915050565b600067ffffffffffffffff821115611e1b57611e1a611bbe565b5b602082029050602081019050919050565b600080fd5b6000611e44611e3f84611e00565b611c1e565b90508083825260208201905060208402830185811115611e6757611e66611e2c565b5b835b81811015611e905780611e7c8882611a69565b845260208401935050602081019050611e69565b5050509392505050565b600082601f830112611eaf57611eae611ba3565b5b8135611ebf848260208601611e31565b91505092915050565b600067ffffffffffffffff821115611ee357611ee2611bbe565b5b611eec82611bad565b9050602081019050919050565b6000611f0c611f0784611ec8565b611c1e565b905082815260208101848484011115611f2857611f27611ba8565b5b611f33848285611c6a565b509392505050565b600082601f830112611f5057611f4f611ba3565b5b8135611f60848260208601611ef9565b91505092915050565b60008060008060808587031215611f8357611f826119e0565b5b6000611f9187828801611a33565b945050602085013567ffffffffffffffff811115611fb257611fb16119e5565b5b611fbe87828801611e9a565b935050604085013567ffffffffffffffff811115611fdf57611fde6119e5565b5b611feb87828801611e9a565b925050606085013567ffffffffffffffff81111561200c5761200b6119e5565b5b61201887828801611f3b565b91505092959194509250565b600080600080600060a086880312156120405761203f6119e0565b5b600061204e88828901611a33565b955050602061205f88828901611a33565b945050604086013567ffffffffffffffff8111156120805761207f6119e5565b5b61208c88828901611e9a565b935050606086013567ffffffffffffffff8111156120ad576120ac6119e5565b5b6120b988828901611e9a565b925050608086013567ffffffffffffffff8111156120da576120d96119e5565b5b6120e688828901611f3b565b9150509295509295909350565b600067ffffffffffffffff82111561210e5761210d611bbe565b5b602082029050602081019050919050565b600061213261212d846120f3565b611c1e565b9050808382526020820190506020840283018581111561215557612154611e2c565b5b835b8181101561217e578061216a8882611a33565b845260208401935050602081019050612157565b5050509392505050565b600082601f83011261219d5761219c611ba3565b5b81356121ad84826020860161211f565b91505092915050565b600080604083850312156121cd576121cc6119e0565b5b600083013567ffffffffffffffff8111156121eb576121ea6119e5565b5b6121f785828601612188565b925050602083013567ffffffffffffffff811115612218576122176119e5565b5b61222485828601611e9a565b9150509250929050565b600081519050919050565b600082825260208201905092915050565b6000819050602082019050919050565b61226381611a48565b82525050565b6000612275838361225a565b60208301905092915050565b6000602082019050919050565b60006122998261222e565b6122a38185612239565b93506122ae8361224a565b8060005b838110156122df5781516122c68882612269565b97506122d183612281565b9250506001810190506122b2565b5085935050505092915050565b60006020820190508181036000830152612306818461228e565b905092915050565b60008060008060808587031215612328576123276119e0565b5b600061233687828801611a33565b945050602061234787828801611a69565b935050604061235887828801611a69565b925050606085013567ffffffffffffffff811115612379576123786119e5565b5b61238587828801611f3b565b91505092959194509250565b61239a81611a0a565b82525050565b60006020820190506123b56000830184612391565b92915050565b6123c481611b6d565b81146123cf57600080fd5b50565b6000813590506123e1816123bb565b92915050565b600080604083850312156123fe576123fd6119e0565b5b600061240c85828601611a33565b925050602061241d858286016123d2565b9150509250929050565b6000806040838503121561243e5761243d6119e0565b5b600061244c85828601611a33565b925050602061245d85828601611a33565b9150509250929050565b600080600080600060a08688031215612483576124826119e0565b5b600061249188828901611a33565b95505060206124a288828901611a33565b94505060406124b388828901611a69565b93505060606124c488828901611a69565b925050608086013567ffffffffffffffff8111156124e5576124e46119e5565b5b6124f188828901611f3b565b9150509295509295909350565b600060208284031215612514576125136119e0565b5b600061252284828501611a33565b91505092915050565b7f4e487b7100000000000000000000000000000000000000000000000000000000600052602260045260246000fd5b6000600282049050600182168061257257607f821691505b6020821081036125855761258461252b565b5b50919050565b60006040820190506125a06000830185612391565b6125ad6020830184612391565b9392505050565b60006040820190506125c96000830185611abe565b6125d66020830184611abe565b9392505050565b7f4e487b7100000000000000000000000000000000000000000000000000000000600052603260045260246000fd5b7f4e487b7100000000000000000000000000000000000000000000000000000000600052601160045260246000fd5b600061264682611a48565b91507fffffffffffffffffffffffffffffffffffffffffffffffffffffffffffffffff82036126785761267761260c565b5b600182019050919050565b60008190508160005260206000209050919050565b60006020601f8301049050919050565b600082821b905092915050565b6000600883026126e57fffffffffffffffffffffffffffffffffffffffffffffffffffffffffffffffff826126a8565b6126ef86836126a8565b95508019841693508086168417925050509392505050565b6000819050919050565b600061272c61272761272284611a48565b612707565b611a48565b9050919050565b6000819050919050565b61274683612711565b61275a61275282612733565b8484546126b5565b825550505050565b600090565b61276f612762565b61277a81848461273d565b505050565b5b8181101561279e57612793600082612767565b600181019050612780565b5050565b601f8211156127e3576127b481612683565b6127bd84612698565b810160208510156127cc578190505b6127e06127d885612698565b83018261277f565b50505b505050565b600082821c905092915050565b6000612806600019846008026127e8565b1980831691505092915050565b600061281f83836127f5565b9150826002028217905092915050565b61283882611d5f565b67ffffffffffffffff81111561285157612850611bbe565b5b61285b825461255a565b6128668282856127a2565b600060209050601f8311600181146128995760008415612887578287015190505b6128918582612813565b8655506128f9565b601f1984166128a786612683565b60005b828110156128cf578489015182556001820191506020850194506020810190506128aa565b868310156128ec57848901516128e8601f8916826127f5565b8355505b6001600288020188555050505b505050505050565b600081519050919050565b600082825260208201905092915050565b600061292882612901565b612932818561290c565b9350612942818560208601611d7b565b61294b81611bad565b840191505092915050565b600060a08201905061296b6000830188612391565b6129786020830187612391565b6129856040830186611abe565b6129926060830185611abe565b81810360808301526129a4818461291d565b90509695505050505050565b6000815190506129bf81611b14565b92915050565b6000602082840312156129db576129da6119e0565b5b60006129e9848285016129b0565b91505092915050565b600060a082019050612a076000830188612391565b612a146020830187612391565b8181036040830152612a26818661228e565b90508181036060830152612a3a818561228e565b90508181036080830152612a4e818461291d565b90509695505050505050565b6000612a6582611a48565b9150612a7083611a48565b9250828201905080821115612a8857612a8761260c565b5b92915050565b6000608082019050612aa36000830187612391565b612ab06020830186611abe565b612abd6040830185611abe565b612aca6060830184611abe565b95945050505050565b60006040820190508181036000830152612aed818561228e565b90508181036020830152612b01818461228e565b9050939250505056fea2646970667358221220d95fafb528a2b693401b712a967ab093132395916bc29e50f6cada375cbe831664736f6c63430008140033",
  "linkReferences": {},
  "deployedLinkReferences": {}
}