{
  "_format": "hh-sol-artifact-1",
  "contractName": "NFT",
  "sourceName": "contracts/NFT.sol",
  "abi": [
    {
      "inputs": [],
      "stateMutability": "nonpayable",
      "type": "constructor"
    },
    {
      "inputs": [
        {
          "internalType": "address",
          "name": "sender",
          "type": "address"
        },
        {
          "internalType": "uint256",
          "name": "tokenId",
          "type": "uint256"
        },
        {
          "internalType": "address",
          "name": "owner",
          "type": "address"
        }
      ],
      "name": "ERC721IncorrectOwner",
      "type": "error"
    },
    {
      "inputs": [
        {
          "internalType": "address",
          "name": "operator",
          "type": "address"
        },
        {
          "internalType": "uint256",
          "name": "tokenId",
          "type": "uint256"
        }
      ],
      "name": "ERC721InsufficientApproval",
      "type": "error"
    },
    {
      "inputs": [
        {
          "internalType": "address",
          "name": "approver",
          "type": "address"
        }
      ],
      "name": "ERC721InvalidApprover",
      "type": "error"
    },
    {
      "inputs": [
        {
          "internalType": "address",
          "name": "operator",
          "type": "address"
        }
      ],
      "name": "ERC721InvalidOperator",
      "type": "error"
    },
    {
      "inputs": [
        {
          "internalType": "address",
          "name": "owner",
          "type": "address"
        }
      ],
      "name": "ERC721InvalidOwner",
      "type": "error"
    },
    {
      "inputs": [
        {
          "internalType": "address",
          "name": "receiver",
          "type": "address"
        }
      ],
      "name": "ERC721InvalidReceiver",
      "type": "error"
    },
    {
      "inputs": [
        {
          "internalType": "address",
          "name": "sender",
          "type": "address"
        }
      ],
      "name": "ERC721InvalidSender",
      "type": "error"
    },
    {
      "inputs": [
        {
          "internalType": "uint256",
          "name": "tokenId",
          "type": "uint256"
        }
      ],
      "name": "ERC721NonexistentToken",
      "type": "error"
    },
    {
      "inputs": [
        {
          "internalType": "address",
          "name": "owner",
          "type": "address"
        }
      ],
      "name": "OwnableInvalidOwner",
      "type": "error"
    },
    {
      "inputs": [
        {
          "internalType": "address",
          "name": "account",
          "type": "address"
        }
      ],
      "name": "OwnableUnauthorizedAccount",
      "type": "error"
    },
    {
      "anonymous": false,
      "inputs": [
        {
          "indexed": true,
          "internalType": "address",
          "name": "owner",
          "type": "address"
        },
        {
          "indexed": true,
          "internalType": "address",
          "name": "approved",
          "type": "address"
        },
        {
          "indexed": true,
          "internalType": "uint256",
          "name": "tokenId",
          "type": "uint256"
        }
      ],
      "name": "Approval",
      "type": "event"
    },
    {
      "anonymous": false,
      "inputs": [
        {
          "indexed": true,
          "internalType": "address",
          "name": "owner",
          "type": "address"
        },
        {
          "indexed": true,
          "internalType": "address",
          "name": "operator",
          "type": "address"
        },
        {
          "indexed": false,
          "internalType": "bool",
          "name": "approved",
          "type": "bool"
        }
      ],
      "name": "ApprovalForAll",
      "type": "event"
    },
    {
      "anonymous": false,
      "inputs": [
        {
          "indexed": false,
          "internalType": "uint256",
          "name": "_fromTokenId",
          "type": "uint256"
        },
        {
          "indexed": false,
          "internalType": "uint256",
          "name": "_toTokenId",
          "type": "uint256"
        }
      ],
      "name": "BatchMetadataUpdate",
      "type": "event"
    },
    {
      "anonymous": false,
      "inputs": [
        {
          "indexed": false,
          "internalType": "uint256",
          "name": "_tokenId",
          "type": "uint256"
        }
      ],
      "name": "MetadataUpdate",
      "type": "event"
    },
    {
      "anonymous": false,
      "inputs": [
        {
          "indexed": true,
          "internalType": "address",
          "name": "previousOwner",
          "type": "address"
        },
        {
          "indexed": true,
          "internalType": "address",
          "name": "newOwner",
          "type": "address"
        }
      ],
      "name": "OwnershipTransferred",
      "type": "event"
    },
    {
      "anonymous": false,
      "inputs": [
        {
          "indexed": true,
          "internalType": "address",
          "name": "from",
          "type": "address"
        },
        {
          "indexed": true,
          "internalType": "address",
          "name": "to",
          "type": "address"
        },
        {
          "indexed": true,
          "internalType": "uint256",
          "name": "tokenId",
          "type": "uint256"
        }
      ],
      "name": "Transfer",
      "type": "event"
    },
    {
      "inputs": [
        {
          "internalType": "address",
          "name": "to",
          "type": "address"
        },
        {
          "internalType": "uint256",
          "name": "tokenId",
          "type": "uint256"
        }
      ],
      "name": "approve",
      "outputs": [],
      "stateMutability": "nonpayable",
      "type": "function"
    },
    {
      "inputs": [
        {
          "internalType": "address",
          "name": "owner",
          "type": "address"
        }
      ],
      "name": "balanceOf",
      "outputs": [
        {
          "internalType": "uint256",
          "name": "",
          "type": "uint256"
        }
      ],
      "stateMutability": "view",
      "type": "function"
    },
    {
      "inputs": [
        {
          "internalType": "uint256",
          "name": "tokenId",
          "type": "uint256"
        }
      ],
      "name": "getApproved",
      "outputs": [
        {
          "internalType": "address",
          "name": "",
          "type": "address"
        }
      ],
      "stateMutability": "view",
      "type": "function"
    },
    {
      "inputs": [
        {
          "internalType": "address",
          "name": "owner",
          "type": "address"
        },
        {
          "internalType": "address",
          "name": "operator",
          "type": "address"
        }
      ],
      "name": "isApprovedForAll",
      "outputs": [
        {
          "internalType": "bool",
          "name": "",
          "type": "bool"
        }
      ],
      "stateMutability": "view",
      "type": "function"
    },
    {
      "inputs": [
        {
          "internalType": "string",
          "name": "_tokenURI",
          "type": "string"
        }
      ],
      "name": "mint",
      "outputs": [],
      "stateMutability": "nonpayable",
      "type": "function"
    },
    {
      "inputs": [],
      "name": "name",
      "outputs": [
        {
          "internalType": "string",
          "name": "",
          "type": "string"
        }
      ],
      "stateMutability": "view",
      "type": "function"
    },
    {
      "inputs": [],
      "name": "nextTokenId",
      "outputs": [
        {
          "internalType": "uint256",
          "name": "",
          "type": "uint256"
        }
      ],
      "stateMutability": "view",
      "type": "function"
    },
    {
      "inputs": [],
      "name": "owner",
      "outputs": [
        {
          "internalType": "address",
          "name": "",
          "type": "address"
        }
      ],
      "stateMutability": "view",
      "type": "function"
    },
    {
      "inputs": [
        {
          "internalType": "uint256",
          "name": "tokenId",
          "type": "uint256"
        }
      ],
      "name": "ownerOf",
      "outputs": [
        {
          "internalType": "address",
          "name": "",
          "type": "address"
        }
      ],
      "stateMutability": "view",
      "type": "function"
    },
    {
      "inputs": [],
      "name": "renounceOwnership",
      "outputs": [],
      "stateMutability": "nonpayable",
      "type": "function"
    },
    {
      "inputs": [
        {
          "internalType": "address",
          "name": "from",
          "type": "address"
        },
        {
          "internalType": "address",
          "name": "to",
          "type": "address"
        },
        {
          "internalType": "uint256",
          "name": "tokenId",
          "type": "uint256"
        }
      ],
      "name": "safeTransferFrom",
      "outputs": [],
      "stateMutability": "nonpayable",
      "type": "function"
    },
    {
      "inputs": [
        {
          "internalType": "address",
          "name": "from",
          "type": "address"
        },
        {
          "internalType": "address",
          "name": "to",
          "type": "address"
        },
        {
          "internalType": "uint256",
          "name": "tokenId",
          "type": "uint256"
        },
        {
          "internalType": "bytes",
          "name": "data",
          "type": "bytes"
        }
      ],
      "name": "safeTransferFrom",
      "outputs": [],
      "stateMutability": "nonpayable",
      "type": "function"
    },
    {
      "inputs": [
        {
          "internalType": "address",
          "name": "operator",
          "type": "address"
        },
        {
          "internalType": "bool",
          "name": "approved",
          "type": "bool"
        }
      ],
      "name": "setApprovalForAll",
      "outputs": [],
      "stateMutability": "nonpayable",
      "type": "function"
    },
    {
      "inputs": [
        {
          "internalType": "bytes4",
          "name": "interfaceId",
          "type": "bytes4"
        }
      ],
      "name": "supportsInterface",
      "outputs": [
        {
          "internalType": "bool",
          "name": "",
          "type": "bool"
        }
      ],
      "stateMutability": "view",
      "type": "function"
    },
    {
      "inputs": [],
      "name": "symbol",
      "outputs": [
        {
          "internalType": "string",
          "name": "",
          "type": "string"
        }
      ],
      "stateMutability": "view",
      "type": "function"
    },
    {
      "inputs": [
        {
          "internalType": "uint256",
          "name": "tokenId",
          "type": "uint256"
        }
      ],
      "name": "tokenURI",
      "outputs": [
        {
          "internalType": "string",
          "name": "",
          "type": "string"
        }
      ],
      "stateMutability": "view",
      "type": "function"
    },
    {
      "inputs": [
        {
          "internalType": "address",
          "name": "from",
          "type": "address"
        },
        {
          "internalType": "address",
          "name": "to",
          "type": "address"
        },
        {
          "internalType": "uint256",
          "name": "tokenId",
          "type": "uint256"
        }
      ],
      "name": "transferFrom",
      "outputs": [],
      "stateMutability": "nonpayable",
      "type": "function"
    },
    {
      "inputs": [
        {
          "internalType": "address",
          "name": "newOwner",
          "type": "address"
        }
      ],
      "name": "transferOwnership",
      "outputs": [],
      "stateMutability": "nonpayable",
      "type": "function"
    }
  ],
  "bytecode": "0x60806040523480156200001157600080fd5b5073d53082e7b78f687823ae781e924c161e4d7a0d746040518060400160405280600881526020017f4e4654746f6b656e0000000000000000000000000000000000000000000000008152506040518060400160405280600381526020017f4e465400000000000000000000000000000000000000000000000000000000008152508160009081620000a4919062000486565b508060019081620000b6919062000486565b505050600073ffffffffffffffffffffffffffffffffffffffff168173ffffffffffffffffffffffffffffffffffffffff16036200012e5760006040517f1e4fbdf7000000000000000000000000000000000000000000000000000000008152600401620001259190620005b2565b60405180910390fd5b6200013f816200014660201b60201c565b50620005cf565b6000600760009054906101000a900473ffffffffffffffffffffffffffffffffffffffff16905081600760006101000a81548173ffffffffffffffffffffffffffffffffffffffff021916908373ffffffffffffffffffffffffffffffffffffffff1602179055508173ffffffffffffffffffffffffffffffffffffffff168173ffffffffffffffffffffffffffffffffffffffff167f8be0079c531659141344cd1fd0a4f28419497f9722a3daafe3b4186f6b6457e060405160405180910390a35050565b600081519050919050565b7f4e487b7100000000000000000000000000000000000000000000000000000000600052604160045260246000fd5b7f4e487b7100000000000000000000000000000000000000000000000000000000600052602260045260246000fd5b600060028204905060018216806200028e57607f821691505b602082108103620002a457620002a362000246565b5b50919050565b60008190508160005260206000209050919050565b60006020601f8301049050919050565b600082821b905092915050565b6000600883026200030e7fffffffffffffffffffffffffffffffffffffffffffffffffffffffffffffffff82620002cf565b6200031a8683620002cf565b95508019841693508086168417925050509392505050565b6000819050919050565b6000819050919050565b600062000367620003616200035b8462000332565b6200033c565b62000332565b9050919050565b6000819050919050565b620003838362000346565b6200039b62000392826200036e565b848454620002dc565b825550505050565b600090565b620003b2620003a3565b620003bf81848462000378565b505050565b5b81811015620003e757620003db600082620003a8565b600181019050620003c5565b5050565b601f82111562000436576200040081620002aa565b6200040b84620002bf565b810160208510156200041b578190505b620004336200042a85620002bf565b830182620003c4565b50505b505050565b600082821c905092915050565b60006200045b600019846008026200043b565b1980831691505092915050565b600062000476838362000448565b9150826002028217905092915050565b62000491826200020c565b67ffffffffffffffff811115620004ad57620004ac62000217565b5b620004b9825462000275565b620004c6828285620003eb565b600060209050601f831160018114620004fe5760008415620004e9578287015190505b620004f5858262000468565b86555062000565565b601f1984166200050e86620002aa565b60005b82811015620005385784890151825560018201915060208501945060208101905062000511565b8683101562000558578489015162000554601f89168262000448565b8355505b6001600288020188555050505b505050505050565b600073ffffffffffffffffffffffffffffffffffffffff82169050919050565b60006200059a826200056d565b9050919050565b620005ac816200058d565b82525050565b6000602082019050620005c96000830184620005a1565b92915050565b61267180620005df6000396000f3fe608060405234801561001057600080fd5b50600436106101165760003560e01c806375794a3c116100a2578063b88d4fde11610071578063b88d4fde146102cd578063c87b56dd146102e9578063d85d3d2714610319578063e985e9c514610335578063f2fde38b1461036557610116565b806375794a3c146102575780638da5cb5b1461027557806395d89b4114610293578063a22cb465146102b157610116565b806323b872dd116100e957806323b872dd146101b557806342842e0e146101d15780636352211e146101ed57806370a082311461021d578063715018a61461024d57610116565b806301ffc9a71461011b57806306fdde031461014b578063081812fc14610169578063095ea7b314610199575b600080fd5b61013560048036038101906101309190611adc565b610381565b6040516101429190611b24565b60405180910390f35b6101536103e2565b6040516101609190611bcf565b60405180910390f35b610183600480360381019061017e9190611c27565b610474565b6040516101909190611c95565b60405180910390f35b6101b360048036038101906101ae9190611cdc565b610490565b005b6101cf60048036038101906101ca9190611d1c565b6104a6565b005b6101eb60048036038101906101e69190611d1c565b6105a8565b005b61020760048036038101906102029190611c27565b6105c8565b6040516102149190611c95565b60405180910390f35b61023760048036038101906102329190611d6f565b6105da565b6040516102449190611dab565b60405180910390f35b610255610694565b005b61025f6106a8565b60405161026c9190611dab565b60405180910390f35b61027d6106ae565b60405161028a9190611c95565b60405180910390f35b61029b6106d8565b6040516102a89190611bcf565b60405180910390f35b6102cb60048036038101906102c69190611df2565b61076a565b005b6102e760048036038101906102e29190611f67565b610780565b005b61030360048036038101906102fe9190611c27565b61079d565b6040516103109190611bcf565b60405180910390f35b610333600480360381019061032e919061208b565b6108b0565b005b61034f600480360381019061034a91906120d4565b6108e7565b60405161035c9190611b24565b60405180910390f35b61037f600480360381019061037a9190611d6f565b61097b565b005b6000634906490660e01b7bffffffffffffffffffffffffffffffffffffffffffffffffffffffff1916827bffffffffffffffffffffffffffffffffffffffffffffffffffffffff191614806103db57506103da82610a01565b5b9050919050565b6060600080546103f190612143565b80601f016020809104026020016040519081016040528092919081815260200182805461041d90612143565b801561046a5780601f1061043f5761010080835404028352916020019161046a565b820191906000526020600020905b81548152906001019060200180831161044d57829003601f168201915b5050505050905090565b600061047f82610ae3565b5061048982610b6b565b9050919050565b6104a2828261049d610ba8565b610bb0565b5050565b600073ffffffffffffffffffffffffffffffffffffffff168273ffffffffffffffffffffffffffffffffffffffff16036105185760006040517f64a0ae9200000000000000000000000000000000000000000000000000000000815260040161050f9190611c95565b60405180910390fd5b600061052c8383610527610ba8565b610bc2565b90508373ffffffffffffffffffffffffffffffffffffffff168173ffffffffffffffffffffffffffffffffffffffff16146105a2578382826040517f64283d7b00000000000000000000000000000000000000000000000000000000815260040161059993929190612174565b60405180910390fd5b50505050565b6105c383838360405180602001604052806000815250610780565b505050565b60006105d382610ae3565b9050919050565b60008073ffffffffffffffffffffffffffffffffffffffff168273ffffffffffffffffffffffffffffffffffffffff160361064d5760006040517f89c62b640000000000000000000000000000000000000000000000000000000081526004016106449190611c95565b60405180910390fd5b600360008373ffffffffffffffffffffffffffffffffffffffff1673ffffffffffffffffffffffffffffffffffffffff168152602001908152602001600020549050919050565b61069c610ddc565b6106a66000610e63565b565b60085481565b6000600760009054906101000a900473ffffffffffffffffffffffffffffffffffffffff16905090565b6060600180546106e790612143565b80601f016020809104026020016040519081016040528092919081815260200182805461071390612143565b80156107605780601f1061073557610100808354040283529160200191610760565b820191906000526020600020905b81548152906001019060200180831161074357829003601f168201915b5050505050905090565b61077c610775610ba8565b8383610f29565b5050565b61078b8484846104a6565b61079784848484611098565b50505050565b60606107a882610ae3565b5060006006600084815260200190815260200160002080546107c990612143565b80601f01602080910402602001604051908101604052809291908181526020018280546107f590612143565b80156108425780601f1061081757610100808354040283529160200191610842565b820191906000526020600020905b81548152906001019060200180831161082557829003601f168201915b50505050509050600061085361124f565b905060008151036108685781925050506108ab565b60008251111561089d5780826040516020016108859291906121e7565b604051602081830303815290604052925050506108ab565b6108a684611266565b925050505b919050565b600060085490506108c133826112cf565b6108cb81836112ed565b600860008154809291906108de9061223a565b91905055505050565b6000600560008473ffffffffffffffffffffffffffffffffffffffff1673ffffffffffffffffffffffffffffffffffffffff16815260200190815260200160002060008373ffffffffffffffffffffffffffffffffffffffff1673ffffffffffffffffffffffffffffffffffffffff16815260200190815260200160002060009054906101000a900460ff16905092915050565b610983610ddc565b600073ffffffffffffffffffffffffffffffffffffffff168173ffffffffffffffffffffffffffffffffffffffff16036109f55760006040517f1e4fbdf70000000000000000000000000000000000000000000000000000000081526004016109ec9190611c95565b60405180910390fd5b6109fe81610e63565b50565b60007f80ac58cd000000000000000000000000000000000000000000000000000000007bffffffffffffffffffffffffffffffffffffffffffffffffffffffff1916827bffffffffffffffffffffffffffffffffffffffffffffffffffffffff19161480610acc57507f5b5e139f000000000000000000000000000000000000000000000000000000007bffffffffffffffffffffffffffffffffffffffffffffffffffffffff1916827bffffffffffffffffffffffffffffffffffffffffffffffffffffffff1916145b80610adc5750610adb82611349565b5b9050919050565b600080610aef836113b3565b9050600073ffffffffffffffffffffffffffffffffffffffff168173ffffffffffffffffffffffffffffffffffffffff1603610b6257826040517f7e273289000000000000000000000000000000000000000000000000000000008152600401610b599190611dab565b60405180910390fd5b80915050919050565b60006004600083815260200190815260200160002060009054906101000a900473ffffffffffffffffffffffffffffffffffffffff169050919050565b600033905090565b610bbd83838360016113f0565b505050565b600080610bce846113b3565b9050600073ffffffffffffffffffffffffffffffffffffffff168373ffffffffffffffffffffffffffffffffffffffff1614610c1057610c0f8184866115b5565b5b600073ffffffffffffffffffffffffffffffffffffffff168173ffffffffffffffffffffffffffffffffffffffff1614610ca157610c526000856000806113f0565b6001600360008373ffffffffffffffffffffffffffffffffffffffff1673ffffffffffffffffffffffffffffffffffffffff168152602001908152602001600020600082825403925050819055505b600073ffffffffffffffffffffffffffffffffffffffff168573ffffffffffffffffffffffffffffffffffffffff1614610d24576001600360008773ffffffffffffffffffffffffffffffffffffffff1673ffffffffffffffffffffffffffffffffffffffff168152602001908152602001600020600082825401925050819055505b846002600086815260200190815260200160002060006101000a81548173ffffffffffffffffffffffffffffffffffffffff021916908373ffffffffffffffffffffffffffffffffffffffff160217905550838573ffffffffffffffffffffffffffffffffffffffff168273ffffffffffffffffffffffffffffffffffffffff167fddf252ad1be2c89b69c2b068fc378daa952ba7f163c4a11628f55a4df523b3ef60405160405180910390a4809150509392505050565b610de4610ba8565b73ffffffffffffffffffffffffffffffffffffffff16610e026106ae565b73ffffffffffffffffffffffffffffffffffffffff1614610e6157610e25610ba8565b6040517f118cdaa7000000000000000000000000000000000000000000000000000000008152600401610e589190611c95565b60405180910390fd5b565b6000600760009054906101000a900473ffffffffffffffffffffffffffffffffffffffff16905081600760006101000a81548173ffffffffffffffffffffffffffffffffffffffff021916908373ffffffffffffffffffffffffffffffffffffffff1602179055508173ffffffffffffffffffffffffffffffffffffffff168173ffffffffffffffffffffffffffffffffffffffff167f8be0079c531659141344cd1fd0a4f28419497f9722a3daafe3b4186f6b6457e060405160405180910390a35050565b600073ffffffffffffffffffffffffffffffffffffffff168273ffffffffffffffffffffffffffffffffffffffff1603610f9a57816040517f5b08ba18000000000000000000000000000000000000000000000000000000008152600401610f919190611c95565b60405180910390fd5b80600560008573ffffffffffffffffffffffffffffffffffffffff1673ffffffffffffffffffffffffffffffffffffffff16815260200190815260200160002060008473ffffffffffffffffffffffffffffffffffffffff1673ffffffffffffffffffffffffffffffffffffffff16815260200190815260200160002060006101000a81548160ff0219169083151502179055508173ffffffffffffffffffffffffffffffffffffffff168373ffffffffffffffffffffffffffffffffffffffff167f17307eab39ab6107e8899845ad3d59bd9653f200f220920489ca2b5937696c318360405161108b9190611b24565b60405180910390a3505050565b60008373ffffffffffffffffffffffffffffffffffffffff163b1115611249578273ffffffffffffffffffffffffffffffffffffffff1663150b7a026110dc610ba8565b8685856040518563ffffffff1660e01b81526004016110fe94939291906122d7565b6020604051808303816000875af192505050801561113a57506040513d601f19601f820116820180604052508101906111379190612338565b60015b6111be573d806000811461116a576040519150601f19603f3d011682016040523d82523d6000602084013e61116f565b606091505b5060008151036111b657836040517f64a0ae920000000000000000000000000000000000000000000000000000000081526004016111ad9190611c95565b60405180910390fd5b805181602001fd5b63150b7a0260e01b7bffffffffffffffffffffffffffffffffffffffffffffffffffffffff1916817bffffffffffffffffffffffffffffffffffffffffffffffffffffffff19161461124757836040517f64a0ae9200000000000000000000000000000000000000000000000000000000815260040161123e9190611c95565b60405180910390fd5b505b50505050565b606060405180602001604052806000815250905090565b606061127182610ae3565b50600061127c61124f565b9050600081511161129c57604051806020016040528060008152506112c7565b806112a684611679565b6040516020016112b79291906121e7565b6040516020818303038152906040525b915050919050565b6112e9828260405180602001604052806000815250611747565b5050565b8060066000848152602001908152602001600020908161130d9190612511565b507ff8e1a15aba9398e019f0b49df1a4fde98ee17ae345cb5f6b5e2c27f5033e8ce78260405161133d9190611dab565b60405180910390a15050565b60007f01ffc9a7000000000000000000000000000000000000000000000000000000007bffffffffffffffffffffffffffffffffffffffffffffffffffffffff1916827bffffffffffffffffffffffffffffffffffffffffffffffffffffffff1916149050919050565b60006002600083815260200190815260200160002060009054906101000a900473ffffffffffffffffffffffffffffffffffffffff169050919050565b80806114295750600073ffffffffffffffffffffffffffffffffffffffff168273ffffffffffffffffffffffffffffffffffffffff1614155b1561155d57600061143984610ae3565b9050600073ffffffffffffffffffffffffffffffffffffffff168373ffffffffffffffffffffffffffffffffffffffff16141580156114a457508273ffffffffffffffffffffffffffffffffffffffff168173ffffffffffffffffffffffffffffffffffffffff1614155b80156114b757506114b581846108e7565b155b156114f957826040517fa9fbf51f0000000000000000000000000000000000000000000000000000000081526004016114f09190611c95565b60405180910390fd5b811561155b57838573ffffffffffffffffffffffffffffffffffffffff168273ffffffffffffffffffffffffffffffffffffffff167f8c5be1e5ebec7d5bd14f71427d1e84f3dd0314c0f7b2291e5b200ac8c7c3b92560405160405180910390a45b505b836004600085815260200190815260200160002060006101000a81548173ffffffffffffffffffffffffffffffffffffffff021916908373ffffffffffffffffffffffffffffffffffffffff16021790555050505050565b6115c0838383611763565b61167457600073ffffffffffffffffffffffffffffffffffffffff168373ffffffffffffffffffffffffffffffffffffffff160361163557806040517f7e27328900000000000000000000000000000000000000000000000000000000815260040161162c9190611dab565b60405180910390fd5b81816040517f177e802f00000000000000000000000000000000000000000000000000000000815260040161166b9291906125e3565b60405180910390fd5b505050565b60606000600161168884611824565b01905060008167ffffffffffffffff8111156116a7576116a6611e3c565b5b6040519080825280601f01601f1916602001820160405280156116d95781602001600182028036833780820191505090505b509050600082602001820190505b60011561173c578080600190039150507f3031323334353637383961626364656600000000000000000000000000000000600a86061a8153600a85816117305761172f61260c565b5b049450600085036116e7575b819350505050919050565b6117518383611977565b61175e6000848484611098565b505050565b60008073ffffffffffffffffffffffffffffffffffffffff168373ffffffffffffffffffffffffffffffffffffffff161415801561181b57508273ffffffffffffffffffffffffffffffffffffffff168473ffffffffffffffffffffffffffffffffffffffff1614806117dc57506117db84846108e7565b5b8061181a57508273ffffffffffffffffffffffffffffffffffffffff1661180283610b6b565b73ffffffffffffffffffffffffffffffffffffffff16145b5b90509392505050565b600080600090507a184f03e93ff9f4daa797ed6e38ed64bf6a1f0100000000000000008310611882577a184f03e93ff9f4daa797ed6e38ed64bf6a1f01000000000000000083816118785761187761260c565b5b0492506040810190505b6d04ee2d6d415b85acef810000000083106118bf576d04ee2d6d415b85acef810000000083816118b5576118b461260c565b5b0492506020810190505b662386f26fc1000083106118ee57662386f26fc1000083816118e4576118e361260c565b5b0492506010810190505b6305f5e1008310611917576305f5e100838161190d5761190c61260c565b5b0492506008810190505b612710831061193c5761271083816119325761193161260c565b5b0492506004810190505b6064831061195f57606483816119555761195461260c565b5b0492506002810190505b600a831061196e576001810190505b80915050919050565b600073ffffffffffffffffffffffffffffffffffffffff168273ffffffffffffffffffffffffffffffffffffffff16036119e95760006040517f64a0ae920000000000000000000000000000000000000000000000000000000081526004016119e09190611c95565b60405180910390fd5b60006119f783836000610bc2565b9050600073ffffffffffffffffffffffffffffffffffffffff168173ffffffffffffffffffffffffffffffffffffffff1614611a6b5760006040517f73c6ac6e000000000000000000000000000000000000000000000000000000008152600401611a629190611c95565b60405180910390fd5b505050565b6000604051905090565b600080fd5b600080fd5b60007fffffffff0000000000000000000000000000000000000000000000000000000082169050919050565b611ab981611a84565b8114611ac457600080fd5b50565b600081359050611ad681611ab0565b92915050565b600060208284031215611af257611af1611a7a565b5b6000611b0084828501611ac7565b91505092915050565b60008115159050919050565b611b1e81611b09565b82525050565b6000602082019050611b396000830184611b15565b92915050565b600081519050919050565b600082825260208201905092915050565b60005b83811015611b79578082015181840152602081019050611b5e565b60008484015250505050565b6000601f19601f8301169050919050565b6000611ba182611b3f565b611bab8185611b4a565b9350611bbb818560208601611b5b565b611bc481611b85565b840191505092915050565b60006020820190508181036000830152611be98184611b96565b905092915050565b6000819050919050565b611c0481611bf1565b8114611c0f57600080fd5b50565b600081359050611c2181611bfb565b92915050565b600060208284031215611c3d57611c3c611a7a565b5b6000611c4b84828501611c12565b91505092915050565b600073ffffffffffffffffffffffffffffffffffffffff82169050919050565b6000611c7f82611c54565b9050919050565b611c8f81611c74565b82525050565b6000602082019050611caa6000830184611c86565b92915050565b611cb981611c74565b8114611cc457600080fd5b50565b600081359050611cd681611cb0565b92915050565b60008060408385031215611cf357611cf2611a7a565b5b6000611d0185828601611cc7565b9250506020611d1285828601611c12565b9150509250929050565b600080600060608486031215611d3557611d34611a7a565b5b6000611d4386828701611cc7565b9350506020611d5486828701611cc7565b9250506040611d6586828701611c12565b9150509250925092565b600060208284031215611d8557611d84611a7a565b5b6000611d9384828501611cc7565b91505092915050565b611da581611bf1565b82525050565b6000602082019050611dc06000830184611d9c565b92915050565b611dcf81611b09565b8114611dda57600080fd5b50565b600081359050611dec81611dc6565b92915050565b60008060408385031215611e0957611e08611a7a565b5b6000611e1785828601611cc7565b9250506020611e2885828601611ddd565b9150509250929050565b600080fd5b600080fd5b7f4e487b7100000000000000000000000000000000000000000000000000000000600052604160045260246000fd5b611e7482611b85565b810181811067ffffffffffffffff82111715611e9357611e92611e3c565b5b80604052505050565b6000611ea6611a70565b9050611eb28282611e6b565b919050565b600067ffffffffffffffff821115611ed257611ed1611e3c565b5b611edb82611b85565b9050602081019050919050565b82818337600083830152505050565b6000611f0a611f0584611eb7565b611e9c565b905082815260208101848484011115611f2657611f25611e37565b5b611f31848285611ee8565b509392505050565b600082601f830112611f4e57611f4d611e32565b5b8135611f5e848260208601611ef7565b91505092915050565b60008060008060808587031215611f8157611f80611a7a565b5b6000611f8f87828801611cc7565b9450506020611fa087828801611cc7565b9350506040611fb187828801611c12565b925050606085013567ffffffffffffffff811115611fd257611fd1611a7f565b5b611fde87828801611f39565b91505092959194509250565b600067ffffffffffffffff82111561200557612004611e3c565b5b61200e82611b85565b9050602081019050919050565b600061202e61202984611fea565b611e9c565b90508281526020810184848401111561204a57612049611e37565b5b612055848285611ee8565b509392505050565b600082601f83011261207257612071611e32565b5b813561208284826020860161201b565b91505092915050565b6000602082840312156120a1576120a0611a7a565b5b600082013567ffffffffffffffff8111156120bf576120be611a7f565b5b6120cb8482850161205d565b91505092915050565b600080604083850312156120eb576120ea611a7a565b5b60006120f985828601611cc7565b925050602061210a85828601611cc7565b9150509250929050565b7f4e487b7100000000000000000000000000000000000000000000000000000000600052602260045260246000fd5b6000600282049050600182168061215b57607f821691505b60208210810361216e5761216d612114565b5b50919050565b60006060820190506121896000830186611c86565b6121966020830185611d9c565b6121a36040830184611c86565b949350505050565b600081905092915050565b60006121c182611b3f565b6121cb81856121ab565b93506121db818560208601611b5b565b80840191505092915050565b60006121f382856121b6565b91506121ff82846121b6565b91508190509392505050565b7f4e487b7100000000000000000000000000000000000000000000000000000000600052601160045260246000fd5b600061224582611bf1565b91507fffffffffffffffffffffffffffffffffffffffffffffffffffffffffffffffff82036122775761227661220b565b5b600182019050919050565b600081519050919050565b600082825260208201905092915050565b60006122a982612282565b6122b3818561228d565b93506122c3818560208601611b5b565b6122cc81611b85565b840191505092915050565b60006080820190506122ec6000830187611c86565b6122f96020830186611c86565b6123066040830185611d9c565b8181036060830152612318818461229e565b905095945050505050565b60008151905061233281611ab0565b92915050565b60006020828403121561234e5761234d611a7a565b5b600061235c84828501612323565b91505092915050565b60008190508160005260206000209050919050565b60006020601f8301049050919050565b600082821b905092915050565b6000600883026123c77fffffffffffffffffffffffffffffffffffffffffffffffffffffffffffffffff8261238a565b6123d1868361238a565b95508019841693508086168417925050509392505050565b6000819050919050565b600061240e61240961240484611bf1565b6123e9565b611bf1565b9050919050565b6000819050919050565b612428836123f3565b61243c61243482612415565b848454612397565b825550505050565b600090565b612451612444565b61245c81848461241f565b505050565b5b8181101561248057612475600082612449565b600181019050612462565b5050565b601f8211156124c55761249681612365565b61249f8461237a565b810160208510156124ae578190505b6124c26124ba8561237a565b830182612461565b50505b505050565b600082821c905092915050565b60006124e8600019846008026124ca565b1980831691505092915050565b600061250183836124d7565b9150826002028217905092915050565b61251a82611b3f565b67ffffffffffffffff81111561253357612532611e3c565b5b61253d8254612143565b612548828285612484565b600060209050601f83116001811461257b5760008415612569578287015190505b61257385826124f5565b8655506125db565b601f19841661258986612365565b60005b828110156125b15784890151825560018201915060208501945060208101905061258c565b868310156125ce57848901516125ca601f8916826124d7565b8355505b6001600288020188555050505b505050505050565b60006040820190506125f86000830185611c86565b6126056020830184611d9c565b9392505050565b7f4e487b7100000000000000000000000000000000000000000000000000000000600052601260045260246000fdfea264697066735822122093b1acb8816fe28c9769d0e437ec4281b9e6f71b94d0cac16748da77e7aa781964736f6c63430008140033",
  "linkReferences": {},
  "deployedLinkReferences": {}
}